{
  "_format": "hh-sol-artifact-1",
  "contractName": "MyNFT",
  "sourceName": "contracts/MyNFT.sol",
  "abi": [
    {
      "inputs": [
        {
          "internalType": "address",
          "name": "sender",
          "type": "address"
        },
        {
          "internalType": "uint256",
          "name": "tokenId",
          "type": "uint256"
        },
        {
          "internalType": "address",
          "name": "owner",
          "type": "address"
        }
      ],
      "name": "ERC721IncorrectOwner",
      "type": "error"
    },
    {
      "inputs": [
        {
          "internalType": "address",
          "name": "operator",
          "type": "address"
        },
        {
          "internalType": "uint256",
          "name": "tokenId",
          "type": "uint256"
        }
      ],
      "name": "ERC721InsufficientApproval",
      "type": "error"
    },
    {
      "inputs": [
        {
          "internalType": "address",
          "name": "approver",
          "type": "address"
        }
      ],
      "name": "ERC721InvalidApprover",
      "type": "error"
    },
    {
      "inputs": [
        {
          "internalType": "address",
          "name": "operator",
          "type": "address"
        }
      ],
      "name": "ERC721InvalidOperator",
      "type": "error"
    },
    {
      "inputs": [
        {
          "internalType": "address",
          "name": "owner",
          "type": "address"
        }
      ],
      "name": "ERC721InvalidOwner",
      "type": "error"
    },
    {
      "inputs": [
        {
          "internalType": "address",
          "name": "receiver",
          "type": "address"
        }
      ],
      "name": "ERC721InvalidReceiver",
      "type": "error"
    },
    {
      "inputs": [
        {
          "internalType": "address",
          "name": "sender",
          "type": "address"
        }
      ],
      "name": "ERC721InvalidSender",
      "type": "error"
    },
    {
      "inputs": [
        {
          "internalType": "uint256",
          "name": "tokenId",
          "type": "uint256"
        }
      ],
      "name": "ERC721NonexistentToken",
      "type": "error"
    },
    {
      "inputs": [
        {
          "internalType": "address",
          "name": "owner",
          "type": "address"
        }
      ],
      "name": "OwnableInvalidOwner",
      "type": "error"
    },
    {
      "inputs": [
        {
          "internalType": "address",
          "name": "account",
          "type": "address"
        }
      ],
      "name": "OwnableUnauthorizedAccount",
      "type": "error"
    },
    {
      "anonymous": false,
      "inputs": [
        {
          "indexed": true,
          "internalType": "address",
          "name": "owner",
          "type": "address"
        },
        {
          "indexed": true,
          "internalType": "address",
          "name": "approved",
          "type": "address"
        },
        {
          "indexed": true,
          "internalType": "uint256",
          "name": "tokenId",
          "type": "uint256"
        }
      ],
      "name": "Approval",
      "type": "event"
    },
    {
      "anonymous": false,
      "inputs": [
        {
          "indexed": true,
          "internalType": "address",
          "name": "owner",
          "type": "address"
        },
        {
          "indexed": true,
          "internalType": "address",
          "name": "operator",
          "type": "address"
        },
        {
          "indexed": false,
          "internalType": "bool",
          "name": "approved",
          "type": "bool"
        }
      ],
      "name": "ApprovalForAll",
      "type": "event"
    },
    {
      "anonymous": false,
      "inputs": [
        {
          "indexed": true,
          "internalType": "address",
          "name": "previousOwner",
          "type": "address"
        },
        {
          "indexed": true,
          "internalType": "address",
          "name": "newOwner",
          "type": "address"
        }
      ],
      "name": "OwnershipTransferred",
      "type": "event"
    },
    {
      "anonymous": false,
      "inputs": [
        {
          "indexed": true,
          "internalType": "address",
          "name": "to",
          "type": "address"
        },
        {
          "indexed": false,
          "internalType": "uint256",
          "name": "tokenId",
          "type": "uint256"
        }
      ],
      "name": "TokenMinted",
      "type": "event"
    },
    {
      "anonymous": false,
      "inputs": [
        {
          "indexed": true,
          "internalType": "address",
          "name": "from",
          "type": "address"
        },
        {
          "indexed": true,
          "internalType": "address",
          "name": "to",
          "type": "address"
        },
        {
          "indexed": true,
          "internalType": "uint256",
          "name": "tokenId",
          "type": "uint256"
        }
      ],
      "name": "Transfer",
      "type": "event"
    },
    {
      "inputs": [
        {
          "internalType": "address",
          "name": "to",
          "type": "address"
        },
        {
          "internalType": "uint256",
          "name": "tokenId",
          "type": "uint256"
        }
      ],
      "name": "approve",
      "outputs": [],
      "stateMutability": "nonpayable",
      "type": "function"
    },
    {
      "inputs": [
        {
          "internalType": "address",
          "name": "owner",
          "type": "address"
        }
      ],
      "name": "balanceOf",
      "outputs": [
        {
          "internalType": "uint256",
          "name": "",
          "type": "uint256"
        }
      ],
      "stateMutability": "view",
      "type": "function"
    },
    {
      "inputs": [
        {
          "internalType": "uint256",
          "name": "tokenId",
          "type": "uint256"
        }
      ],
      "name": "burn",
      "outputs": [],
      "stateMutability": "nonpayable",
      "type": "function"
    },
    {
      "inputs": [],
      "name": "getAllTokens",
      "outputs": [
        {
          "internalType": "uint256[]",
          "name": "",
          "type": "uint256[]"
        }
      ],
      "stateMutability": "view",
      "type": "function"
    },
    {
      "inputs": [
        {
          "internalType": "uint256",
          "name": "tokenId",
          "type": "uint256"
        }
      ],
      "name": "getApproved",
      "outputs": [
        {
          "internalType": "address",
          "name": "",
          "type": "address"
        }
      ],
      "stateMutability": "view",
      "type": "function"
    },
    {
      "inputs": [
        {
          "internalType": "uint256",
          "name": "tokenId",
          "type": "uint256"
        }
      ],
      "name": "getPrice",
      "outputs": [
        {
          "internalType": "uint256",
          "name": "",
          "type": "uint256"
        }
      ],
      "stateMutability": "view",
      "type": "function"
    },
    {
      "inputs": [
        {
          "internalType": "address",
          "name": "owner",
          "type": "address"
        },
        {
          "internalType": "address",
          "name": "operator",
          "type": "address"
        }
      ],
      "name": "isApprovedForAll",
      "outputs": [
        {
          "internalType": "bool",
          "name": "",
          "type": "bool"
        }
      ],
      "stateMutability": "view",
      "type": "function"
    },
    {
      "inputs": [],
      "name": "name",
      "outputs": [
        {
          "internalType": "string",
          "name": "",
          "type": "string"
        }
      ],
      "stateMutability": "view",
      "type": "function"
    },
    {
      "inputs": [],
      "name": "owner",
      "outputs": [
        {
          "internalType": "address",
          "name": "",
          "type": "address"
        }
      ],
      "stateMutability": "view",
      "type": "function"
    },
    {
      "inputs": [
        {
          "internalType": "uint256",
          "name": "tokenId",
          "type": "uint256"
        }
      ],
      "name": "ownerOf",
      "outputs": [
        {
          "internalType": "address",
          "name": "",
          "type": "address"
        }
      ],
      "stateMutability": "view",
      "type": "function"
    },
    {
      "inputs": [],
      "name": "renounceOwnership",
      "outputs": [],
      "stateMutability": "nonpayable",
      "type": "function"
    },
    {
      "inputs": [
        {
          "internalType": "address",
          "name": "to",
          "type": "address"
        },
        {
          "internalType": "string",
          "name": "tokenCID",
          "type": "string"
        }
      ],
      "name": "safeMint",
      "outputs": [],
      "stateMutability": "nonpayable",
      "type": "function"
    },
    {
      "inputs": [
        {
          "internalType": "address",
          "name": "from",
          "type": "address"
        },
        {
          "internalType": "address",
          "name": "to",
          "type": "address"
        },
        {
          "internalType": "uint256",
          "name": "tokenId",
          "type": "uint256"
        }
      ],
      "name": "safeTransferFrom",
      "outputs": [],
      "stateMutability": "nonpayable",
      "type": "function"
    },
    {
      "inputs": [
        {
          "internalType": "address",
          "name": "from",
          "type": "address"
        },
        {
          "internalType": "address",
          "name": "to",
          "type": "address"
        },
        {
          "internalType": "uint256",
          "name": "tokenId",
          "type": "uint256"
        },
        {
          "internalType": "bytes",
          "name": "data",
          "type": "bytes"
        }
      ],
      "name": "safeTransferFrom",
      "outputs": [],
      "stateMutability": "nonpayable",
      "type": "function"
    },
    {
      "inputs": [
        {
          "internalType": "address",
          "name": "operator",
          "type": "address"
        },
        {
          "internalType": "bool",
          "name": "approved",
          "type": "bool"
        }
      ],
      "name": "setApprovalForAll",
      "outputs": [],
      "stateMutability": "nonpayable",
      "type": "function"
    },
    {
      "inputs": [
        {
          "internalType": "uint256",
          "name": "tokenId",
          "type": "uint256"
        },
        {
          "internalType": "uint256",
          "name": "price",
          "type": "uint256"
        }
      ],
      "name": "setPrice",
      "outputs": [],
      "stateMutability": "nonpayable",
      "type": "function"
    },
    {
      "inputs": [
        {
          "internalType": "bytes4",
          "name": "interfaceId",
          "type": "bytes4"
        }
      ],
      "name": "supportsInterface",
      "outputs": [
        {
          "internalType": "bool",
          "name": "",
          "type": "bool"
        }
      ],
      "stateMutability": "view",
      "type": "function"
    },
    {
      "inputs": [],
      "name": "symbol",
      "outputs": [
        {
          "internalType": "string",
          "name": "",
          "type": "string"
        }
      ],
      "stateMutability": "view",
      "type": "function"
    },
    {
      "inputs": [
        {
          "internalType": "uint256",
          "name": "index",
          "type": "uint256"
        }
      ],
      "name": "tokenByIndex",
      "outputs": [
        {
          "internalType": "uint256",
          "name": "",
          "type": "uint256"
        }
      ],
      "stateMutability": "view",
      "type": "function"
    },
    {
      "inputs": [
        {
          "internalType": "uint256",
          "name": "tokenId",
          "type": "uint256"
        }
      ],
      "name": "tokenURI",
      "outputs": [
        {
          "internalType": "string",
          "name": "",
          "type": "string"
        }
      ],
      "stateMutability": "view",
      "type": "function"
    },
    {
      "inputs": [],
      "name": "totalSupply",
      "outputs": [
        {
          "internalType": "uint256",
          "name": "",
          "type": "uint256"
        }
      ],
      "stateMutability": "view",
      "type": "function"
    },
    {
      "inputs": [
        {
          "internalType": "address",
          "name": "from",
          "type": "address"
        },
        {
          "internalType": "address",
          "name": "to",
          "type": "address"
        },
        {
          "internalType": "uint256",
          "name": "tokenId",
          "type": "uint256"
        }
      ],
      "name": "transferFrom",
      "outputs": [],
      "stateMutability": "nonpayable",
      "type": "function"
    },
    {
      "inputs": [
        {
          "internalType": "address",
          "name": "newOwner",
          "type": "address"
        }
      ],
      "name": "transferOwnership",
      "outputs": [],
      "stateMutability": "nonpayable",
      "type": "function"
    }
  ],
  "bytecode": "0x608060405234801561001057600080fd5b50336040518060400160405280600681526020017f4d79204e465400000000000000000000000000000000000000000000000000008152506040518060400160405280600481526020017f4d4e465400000000000000000000000000000000000000000000000000000000815250816000908161008d919061043d565b50806001908161009d919061043d565b505050600073ffffffffffffffffffffffffffffffffffffffff168173ffffffffffffffffffffffffffffffffffffffff16036101125760006040517f1e4fbdf70000000000000000000000000000000000000000000000000000000081526004016101099190610550565b60405180910390fd5b6101218161012760201b60201c565b5061056b565b6000600660009054906101000a900473ffffffffffffffffffffffffffffffffffffffff16905081600660006101000a81548173ffffffffffffffffffffffffffffffffffffffff021916908373ffffffffffffffffffffffffffffffffffffffff1602179055508173ffffffffffffffffffffffffffffffffffffffff168173ffffffffffffffffffffffffffffffffffffffff167f8be0079c531659141344cd1fd0a4f28419497f9722a3daafe3b4186f6b6457e060405160405180910390a35050565b600081519050919050565b7f4e487b7100000000000000000000000000000000000000000000000000000000600052604160045260246000fd5b7f4e487b7100000000000000000000000000000000000000000000000000000000600052602260045260246000fd5b6000600282049050600182168061026e57607f821691505b60208210810361028157610280610227565b5b50919050565b60008190508160005260206000209050919050565b60006020601f8301049050919050565b600082821b905092915050565b6000600883026102e97fffffffffffffffffffffffffffffffffffffffffffffffffffffffffffffffff826102ac565b6102f386836102ac565b95508019841693508086168417925050509392505050565b6000819050919050565b6000819050919050565b600061033a6103356103308461030b565b610315565b61030b565b9050919050565b6000819050919050565b6103548361031f565b61036861036082610341565b8484546102b9565b825550505050565b600090565b61037d610370565b61038881848461034b565b505050565b5b818110156103ac576103a1600082610375565b60018101905061038e565b5050565b601f8211156103f1576103c281610287565b6103cb8461029c565b810160208510156103da578190505b6103ee6103e68561029c565b83018261038d565b50505b505050565b600082821c905092915050565b6000610414600019846008026103f6565b1980831691505092915050565b600061042d8383610403565b9150826002028217905092915050565b610446826101ed565b67ffffffffffffffff81111561045f5761045e6101f8565b5b6104698254610256565b6104748282856103b0565b600060209050601f8311600181146104a75760008415610495578287015190505b61049f8582610421565b865550610507565b601f1984166104b586610287565b60005b828110156104dd578489015182556001820191506020850194506020810190506104b8565b868310156104fa57848901516104f6601f891682610403565b8355505b6001600288020188555050505b505050505050565b600073ffffffffffffffffffffffffffffffffffffffff82169050919050565b600061053a8261050f565b9050919050565b61054a8161052f565b82525050565b60006020820190506105656000830184610541565b92915050565b612c298061057a6000396000f3fe608060405234801561001057600080fd5b506004361061014d5760003560e01c806370a08231116100c3578063c87b56dd1161007c578063c87b56dd1461038a578063d204c45e146103ba578063e7572230146103d6578063e985e9c514610406578063f2fde38b14610436578063f7d97577146104525761014d565b806370a08231146102dc578063715018a61461030c5780638da5cb5b1461031657806395d89b4114610334578063a22cb46514610352578063b88d4fde1461036e5761014d565b806323b872dd1161011557806323b872dd1461020a5780632a5c792a1461022657806342842e0e1461024457806342966c68146102605780634f6ccce71461027c5780636352211e146102ac5761014d565b806301ffc9a71461015257806306fdde0314610182578063081812fc146101a0578063095ea7b3146101d057806318160ddd146101ec575b600080fd5b61016c60048036038101906101679190611c52565b61046e565b6040516101799190611c9a565b60405180910390f35b61018a610550565b6040516101979190611d45565b60405180910390f35b6101ba60048036038101906101b59190611d9d565b6105e2565b6040516101c79190611e0b565b60405180910390f35b6101ea60048036038101906101e59190611e52565b6105fe565b005b6101f4610614565b6040516102019190611ea1565b60405180910390f35b610224600480360381019061021f9190611ebc565b61061e565b005b61022e610720565b60405161023b9190611fcd565b60405180910390f35b61025e60048036038101906102599190611ebc565b6107b3565b005b61027a60048036038101906102759190611d9d565b6107d3565b005b61029660048036038101906102919190611d9d565b61085b565b6040516102a39190611ea1565b60405180910390f35b6102c660048036038101906102c19190611d9d565b6108a9565b6040516102d39190611e0b565b60405180910390f35b6102f660048036038101906102f19190611fef565b6108bb565b6040516103039190611ea1565b60405180910390f35b610314610975565b005b61031e610989565b60405161032b9190611e0b565b60405180910390f35b61033c6109b3565b6040516103499190611d45565b60405180910390f35b61036c60048036038101906103679190612048565b610a45565b005b610388600480360381019061038391906121bd565b610a5b565b005b6103a4600480360381019061039f9190611d9d565b610a80565b6040516103b19190611d45565b60405180910390f35b6103d460048036038101906103cf91906122e1565b610bdb565b005b6103f060048036038101906103eb9190611d9d565b610c69565b6040516103fd9190611ea1565b60405180910390f35b610420600480360381019061041b919061233d565b610c86565b60405161042d9190611c9a565b60405180910390f35b610450600480360381019061044b9190611fef565b610d1a565b005b61046c6004803603810190610467919061237d565b610da0565b005b60007f80ac58cd000000000000000000000000000000000000000000000000000000007bffffffffffffffffffffffffffffffffffffffffffffffffffffffff1916827bffffffffffffffffffffffffffffffffffffffffffffffffffffffff1916148061053957507f5b5e139f000000000000000000000000000000000000000000000000000000007bffffffffffffffffffffffffffffffffffffffffffffffffffffffff1916827bffffffffffffffffffffffffffffffffffffffffffffffffffffffff1916145b80610549575061054882610e32565b5b9050919050565b60606000805461055f906123ec565b80601f016020809104026020016040519081016040528092919081815260200182805461058b906123ec565b80156105d85780601f106105ad576101008083540402835291602001916105d8565b820191906000526020600020905b8154815290600101906020018083116105bb57829003601f168201915b5050505050905090565b60006105ed82610e9c565b506105f782610f24565b9050919050565b610610828261060b610f61565b610f69565b5050565b6000600754905090565b600073ffffffffffffffffffffffffffffffffffffffff168273ffffffffffffffffffffffffffffffffffffffff16036106905760006040517f64a0ae920000000000000000000000000000000000000000000000000000000081526004016106879190611e0b565b60405180910390fd5b60006106a4838361069f610f61565b610f7b565b90508373ffffffffffffffffffffffffffffffffffffffff168173ffffffffffffffffffffffffffffffffffffffff161461071a578382826040517f64283d7b0000000000000000000000000000000000000000000000000000000081526004016107119392919061241d565b60405180910390fd5b50505050565b6060600060075467ffffffffffffffff8111156107405761073f612092565b5b60405190808252806020026020018201604052801561076e5781602001602082028036833780820191505090505b50905060005b6007548110156107ab578082828151811061079257610791612454565b5b6020026020010181815250508080600101915050610774565b508091505090565b6107ce83838360405180602001604052806000815250610a5b565b505050565b60006107de826108a9565b90503373ffffffffffffffffffffffffffffffffffffffff168173ffffffffffffffffffffffffffffffffffffffff161461084e576040517f08c379a0000000000000000000000000000000000000000000000000000000008152600401610845906124cf565b60405180910390fd5b61085782611195565b5050565b600060075482106108a1576040517f08c379a00000000000000000000000000000000000000000000000000000000081526004016108989061253b565b60405180910390fd5b819050919050565b60006108b482610e9c565b9050919050565b60008073ffffffffffffffffffffffffffffffffffffffff168273ffffffffffffffffffffffffffffffffffffffff160361092e5760006040517f89c62b640000000000000000000000000000000000000000000000000000000081526004016109259190611e0b565b60405180910390fd5b600360008373ffffffffffffffffffffffffffffffffffffffff1673ffffffffffffffffffffffffffffffffffffffff168152602001908152602001600020549050919050565b61097d61121b565b61098760006112a2565b565b6000600660009054906101000a900473ffffffffffffffffffffffffffffffffffffffff16905090565b6060600180546109c2906123ec565b80601f01602080910402602001604051908101604052809291908181526020018280546109ee906123ec565b8015610a3b5780601f10610a1057610100808354040283529160200191610a3b565b820191906000526020600020905b815481529060010190602001808311610a1e57829003601f168201915b5050505050905090565b610a57610a50610f61565b8383611368565b5050565b610a6684848461061e565b610a7a610a71610f61565b858585856114d7565b50505050565b6060600073ffffffffffffffffffffffffffffffffffffffff16610aa3836108a9565b73ffffffffffffffffffffffffffffffffffffffff1603610af9576040517f08c379a0000000000000000000000000000000000000000000000000000000008152600401610af0906125cd565b60405180910390fd5b6000600860008481526020019081526020016000208054610b19906123ec565b80601f0160208091040260200160405190810160405280929190818152602001828054610b45906123ec565b8015610b925780601f10610b6757610100808354040283529160200191610b92565b820191906000526020600020905b815481529060010190602001808311610b7557829003601f168201915b50505050509050604051806080016040528060508152602001612ba46050913981604051602001610bc4929190612675565b604051602081830303815290604052915050919050565b610be361121b565b60006007549050610bf48382611688565b610bfe81836116a6565b60076000815480929190610c11906126d3565b91905055508273ffffffffffffffffffffffffffffffffffffffff167fb9144c96c86541f6fa89c9f2f02495cccf4b08cd6643e26d34ee00aa586558a882604051610c5c9190611ea1565b60405180910390a2505050565b600060096000838152602001908152602001600020549050919050565b6000600560008473ffffffffffffffffffffffffffffffffffffffff1673ffffffffffffffffffffffffffffffffffffffff16815260200190815260200160002060008373ffffffffffffffffffffffffffffffffffffffff1673ffffffffffffffffffffffffffffffffffffffff16815260200190815260200160002060009054906101000a900460ff16905092915050565b610d2261121b565b600073ffffffffffffffffffffffffffffffffffffffff168173ffffffffffffffffffffffffffffffffffffffff1603610d945760006040517f1e4fbdf7000000000000000000000000000000000000000000000000000000008152600401610d8b9190611e0b565b60405180910390fd5b610d9d816112a2565b50565b3373ffffffffffffffffffffffffffffffffffffffff16610dc0836108a9565b73ffffffffffffffffffffffffffffffffffffffff1614610e16576040517f08c379a0000000000000000000000000000000000000000000000000000000008152600401610e0d90612767565b60405180910390fd5b8060096000848152602001908152602001600020819055505050565b60007f01ffc9a7000000000000000000000000000000000000000000000000000000007bffffffffffffffffffffffffffffffffffffffffffffffffffffffff1916827bffffffffffffffffffffffffffffffffffffffffffffffffffffffff1916149050919050565b600080610ea883611742565b9050600073ffffffffffffffffffffffffffffffffffffffff168173ffffffffffffffffffffffffffffffffffffffff1603610f1b57826040517f7e273289000000000000000000000000000000000000000000000000000000008152600401610f129190611ea1565b60405180910390fd5b80915050919050565b60006004600083815260200190815260200160002060009054906101000a900473ffffffffffffffffffffffffffffffffffffffff169050919050565b600033905090565b610f76838383600161177f565b505050565b600080610f8784611742565b9050600073ffffffffffffffffffffffffffffffffffffffff168373ffffffffffffffffffffffffffffffffffffffff1614610fc957610fc8818486611944565b5b600073ffffffffffffffffffffffffffffffffffffffff168173ffffffffffffffffffffffffffffffffffffffff161461105a5761100b60008560008061177f565b6001600360008373ffffffffffffffffffffffffffffffffffffffff1673ffffffffffffffffffffffffffffffffffffffff168152602001908152602001600020600082825403925050819055505b600073ffffffffffffffffffffffffffffffffffffffff168573ffffffffffffffffffffffffffffffffffffffff16146110dd576001600360008773ffffffffffffffffffffffffffffffffffffffff1673ffffffffffffffffffffffffffffffffffffffff168152602001908152602001600020600082825401925050819055505b846002600086815260200190815260200160002060006101000a81548173ffffffffffffffffffffffffffffffffffffffff021916908373ffffffffffffffffffffffffffffffffffffffff160217905550838573ffffffffffffffffffffffffffffffffffffffff168273ffffffffffffffffffffffffffffffffffffffff167fddf252ad1be2c89b69c2b068fc378daa952ba7f163c4a11628f55a4df523b3ef60405160405180910390a4809150509392505050565b60006111a46000836000610f7b565b9050600073ffffffffffffffffffffffffffffffffffffffff168173ffffffffffffffffffffffffffffffffffffffff160361121757816040517f7e27328900000000000000000000000000000000000000000000000000000000815260040161120e9190611ea1565b60405180910390fd5b5050565b611223610f61565b73ffffffffffffffffffffffffffffffffffffffff16611241610989565b73ffffffffffffffffffffffffffffffffffffffff16146112a057611264610f61565b6040517f118cdaa70000000000000000000000000000000000000000000000000000000081526004016112979190611e0b565b60405180910390fd5b565b6000600660009054906101000a900473ffffffffffffffffffffffffffffffffffffffff16905081600660006101000a81548173ffffffffffffffffffffffffffffffffffffffff021916908373ffffffffffffffffffffffffffffffffffffffff1602179055508173ffffffffffffffffffffffffffffffffffffffff168173ffffffffffffffffffffffffffffffffffffffff167f8be0079c531659141344cd1fd0a4f28419497f9722a3daafe3b4186f6b6457e060405160405180910390a35050565b600073ffffffffffffffffffffffffffffffffffffffff168273ffffffffffffffffffffffffffffffffffffffff16036113d957816040517f5b08ba180000000000000000000000000000000000000000000000000000000081526004016113d09190611e0b565b60405180910390fd5b80600560008573ffffffffffffffffffffffffffffffffffffffff1673ffffffffffffffffffffffffffffffffffffffff16815260200190815260200160002060008473ffffffffffffffffffffffffffffffffffffffff1673ffffffffffffffffffffffffffffffffffffffff16815260200190815260200160002060006101000a81548160ff0219169083151502179055508173ffffffffffffffffffffffffffffffffffffffff168373ffffffffffffffffffffffffffffffffffffffff167f17307eab39ab6107e8899845ad3d59bd9653f200f220920489ca2b5937696c31836040516114ca9190611c9a565b60405180910390a3505050565b60008373ffffffffffffffffffffffffffffffffffffffff163b1115611681578273ffffffffffffffffffffffffffffffffffffffff1663150b7a02868685856040518563ffffffff1660e01b815260040161153694939291906127dc565b6020604051808303816000875af192505050801561157257506040513d601f19601f8201168201806040525081019061156f919061283d565b60015b6115f6573d80600081146115a2576040519150601f19603f3d011682016040523d82523d6000602084013e6115a7565b606091505b5060008151036115ee57836040517f64a0ae920000000000000000000000000000000000000000000000000000000081526004016115e59190611e0b565b60405180910390fd5b805181602001fd5b63150b7a0260e01b7bffffffffffffffffffffffffffffffffffffffffffffffffffffffff1916817bffffffffffffffffffffffffffffffffffffffffffffffffffffffff19161461167f57836040517f64a0ae920000000000000000000000000000000000000000000000000000000081526004016116769190611e0b565b60405180910390fd5b505b5050505050565b6116a2828260405180602001604052806000815250611a08565b5050565b600073ffffffffffffffffffffffffffffffffffffffff166116c7836108a9565b73ffffffffffffffffffffffffffffffffffffffff160361171d576040517f08c379a0000000000000000000000000000000000000000000000000000000008152600401611714906128dc565b60405180910390fd5b8060086000848152602001908152602001600020908161173d9190612aa8565b505050565b60006002600083815260200190815260200160002060009054906101000a900473ffffffffffffffffffffffffffffffffffffffff169050919050565b80806117b85750600073ffffffffffffffffffffffffffffffffffffffff168273ffffffffffffffffffffffffffffffffffffffff1614155b156118ec5760006117c884610e9c565b9050600073ffffffffffffffffffffffffffffffffffffffff168373ffffffffffffffffffffffffffffffffffffffff161415801561183357508273ffffffffffffffffffffffffffffffffffffffff168173ffffffffffffffffffffffffffffffffffffffff1614155b801561184657506118448184610c86565b155b1561188857826040517fa9fbf51f00000000000000000000000000000000000000000000000000000000815260040161187f9190611e0b565b60405180910390fd5b81156118ea57838573ffffffffffffffffffffffffffffffffffffffff168273ffffffffffffffffffffffffffffffffffffffff167f8c5be1e5ebec7d5bd14f71427d1e84f3dd0314c0f7b2291e5b200ac8c7c3b92560405160405180910390a45b505b836004600085815260200190815260200160002060006101000a81548173ffffffffffffffffffffffffffffffffffffffff021916908373ffffffffffffffffffffffffffffffffffffffff16021790555050505050565b61194f838383611a2c565b611a0357600073ffffffffffffffffffffffffffffffffffffffff168373ffffffffffffffffffffffffffffffffffffffff16036119c457806040517f7e2732890000000000000000000000000000000000000000000000000000000081526004016119bb9190611ea1565b60405180910390fd5b81816040517f177e802f0000000000000000000000000000000000000000000000000000000081526004016119fa929190612b7a565b60405180910390fd5b505050565b611a128383611aed565b611a27611a1d610f61565b60008585856114d7565b505050565b60008073ffffffffffffffffffffffffffffffffffffffff168373ffffffffffffffffffffffffffffffffffffffff1614158015611ae457508273ffffffffffffffffffffffffffffffffffffffff168473ffffffffffffffffffffffffffffffffffffffff161480611aa55750611aa48484610c86565b5b80611ae357508273ffffffffffffffffffffffffffffffffffffffff16611acb83610f24565b73ffffffffffffffffffffffffffffffffffffffff16145b5b90509392505050565b600073ffffffffffffffffffffffffffffffffffffffff168273ffffffffffffffffffffffffffffffffffffffff1603611b5f5760006040517f64a0ae92000000000000000000000000000000000000000000000000000000008152600401611b569190611e0b565b60405180910390fd5b6000611b6d83836000610f7b565b9050600073ffffffffffffffffffffffffffffffffffffffff168173ffffffffffffffffffffffffffffffffffffffff1614611be15760006040517f73c6ac6e000000000000000000000000000000000000000000000000000000008152600401611bd89190611e0b565b60405180910390fd5b505050565b6000604051905090565b600080fd5b600080fd5b60007fffffffff0000000000000000000000000000000000000000000000000000000082169050919050565b611c2f81611bfa565b8114611c3a57600080fd5b50565b600081359050611c4c81611c26565b92915050565b600060208284031215611c6857611c67611bf0565b5b6000611c7684828501611c3d565b91505092915050565b60008115159050919050565b611c9481611c7f565b82525050565b6000602082019050611caf6000830184611c8b565b92915050565b600081519050919050565b600082825260208201905092915050565b60005b83811015611cef578082015181840152602081019050611cd4565b60008484015250505050565b6000601f19601f8301169050919050565b6000611d1782611cb5565b611d218185611cc0565b9350611d31818560208601611cd1565b611d3a81611cfb565b840191505092915050565b60006020820190508181036000830152611d5f8184611d0c565b905092915050565b6000819050919050565b611d7a81611d67565b8114611d8557600080fd5b50565b600081359050611d9781611d71565b92915050565b600060208284031215611db357611db2611bf0565b5b6000611dc184828501611d88565b91505092915050565b600073ffffffffffffffffffffffffffffffffffffffff82169050919050565b6000611df582611dca565b9050919050565b611e0581611dea565b82525050565b6000602082019050611e206000830184611dfc565b92915050565b611e2f81611dea565b8114611e3a57600080fd5b50565b600081359050611e4c81611e26565b92915050565b60008060408385031215611e6957611e68611bf0565b5b6000611e7785828601611e3d565b9250506020611e8885828601611d88565b9150509250929050565b611e9b81611d67565b82525050565b6000602082019050611eb66000830184611e92565b92915050565b600080600060608486031215611ed557611ed4611bf0565b5b6000611ee386828701611e3d565b9350506020611ef486828701611e3d565b9250506040611f0586828701611d88565b9150509250925092565b600081519050919050565b600082825260208201905092915050565b6000819050602082019050919050565b611f4481611d67565b82525050565b6000611f568383611f3b565b60208301905092915050565b6000602082019050919050565b6000611f7a82611f0f565b611f848185611f1a565b9350611f8f83611f2b565b8060005b83811015611fc0578151611fa78882611f4a565b9750611fb283611f62565b925050600181019050611f93565b5085935050505092915050565b60006020820190508181036000830152611fe78184611f6f565b905092915050565b60006020828403121561200557612004611bf0565b5b600061201384828501611e3d565b91505092915050565b61202581611c7f565b811461203057600080fd5b50565b6000813590506120428161201c565b92915050565b6000806040838503121561205f5761205e611bf0565b5b600061206d85828601611e3d565b925050602061207e85828601612033565b9150509250929050565b600080fd5b600080fd5b7f4e487b7100000000000000000000000000000000000000000000000000000000600052604160045260246000fd5b6120ca82611cfb565b810181811067ffffffffffffffff821117156120e9576120e8612092565b5b80604052505050565b60006120fc611be6565b905061210882826120c1565b919050565b600067ffffffffffffffff82111561212857612127612092565b5b61213182611cfb565b9050602081019050919050565b82818337600083830152505050565b600061216061215b8461210d565b6120f2565b90508281526020810184848401111561217c5761217b61208d565b5b61218784828561213e565b509392505050565b600082601f8301126121a4576121a3612088565b5b81356121b484826020860161214d565b91505092915050565b600080600080608085870312156121d7576121d6611bf0565b5b60006121e587828801611e3d565b94505060206121f687828801611e3d565b935050604061220787828801611d88565b925050606085013567ffffffffffffffff81111561222857612227611bf5565b5b6122348782880161218f565b91505092959194509250565b600067ffffffffffffffff82111561225b5761225a612092565b5b61226482611cfb565b9050602081019050919050565b600061228461227f84612240565b6120f2565b9050828152602081018484840111156122a05761229f61208d565b5b6122ab84828561213e565b509392505050565b600082601f8301126122c8576122c7612088565b5b81356122d8848260208601612271565b91505092915050565b600080604083850312156122f8576122f7611bf0565b5b600061230685828601611e3d565b925050602083013567ffffffffffffffff81111561232757612326611bf5565b5b612333858286016122b3565b9150509250929050565b6000806040838503121561235457612353611bf0565b5b600061236285828601611e3d565b925050602061237385828601611e3d565b9150509250929050565b6000806040838503121561239457612393611bf0565b5b60006123a285828601611d88565b92505060206123b385828601611d88565b9150509250929050565b7f4e487b7100000000000000000000000000000000000000000000000000000000600052602260045260246000fd5b6000600282049050600182168061240457607f821691505b602082108103612417576124166123bd565b5b50919050565b60006060820190506124326000830186611dfc565b61243f6020830185611e92565b61244c6040830184611dfc565b949350505050565b7f4e487b7100000000000000000000000000000000000000000000000000000000600052603260045260246000fd5b7f596f7520617265206e6f7420746865206f776e65720000000000000000000000600082015250565b60006124b9601583611cc0565b91506124c482612483565b602082019050919050565b600060208201905081810360008301526124e8816124ac565b9050919050565b7f496e646578206f7574206f6620626f756e647300000000000000000000000000600082015250565b6000612525601383611cc0565b9150612530826124ef565b602082019050919050565b6000602082019050818103600083015261255481612518565b9050919050565b7f4552433732314d657461646174613a2055524920717565727920666f72206e6f60008201527f6e6578697374656e7420746f6b656e0000000000000000000000000000000000602082015250565b60006125b7602f83611cc0565b91506125c28261255b565b604082019050919050565b600060208201905081810360008301526125e6816125aa565b9050919050565b600081905092915050565b600061260382611cb5565b61260d81856125ed565b935061261d818560208601611cd1565b80840191505092915050565b7f2e6a736f6e000000000000000000000000000000000000000000000000000000600082015250565b600061265f6005836125ed565b915061266a82612629565b600582019050919050565b600061268182856125f8565b915061268d82846125f8565b915061269882612652565b91508190509392505050565b7f4e487b7100000000000000000000000000000000000000000000000000000000600052601160045260246000fd5b60006126de82611d67565b91507fffffffffffffffffffffffffffffffffffffffffffffffffffffffffffffffff82036127105761270f6126a4565b5b600182019050919050565b7f4f6e6c7920746865206f776e65722063616e2073657420746865207072696365600082015250565b6000612751602083611cc0565b915061275c8261271b565b602082019050919050565b6000602082019050818103600083015261278081612744565b9050919050565b600081519050919050565b600082825260208201905092915050565b60006127ae82612787565b6127b88185612792565b93506127c8818560208601611cd1565b6127d181611cfb565b840191505092915050565b60006080820190506127f16000830187611dfc565b6127fe6020830186611dfc565b61280b6040830185611e92565b818103606083015261281d81846127a3565b905095945050505050565b60008151905061283781611c26565b92915050565b60006020828403121561285357612852611bf0565b5b600061286184828501612828565b91505092915050565b7f4552433732314d657461646174613a2055524920736574206f66206e6f6e657860008201527f697374656e7420746f6b656e0000000000000000000000000000000000000000602082015250565b60006128c6602c83611cc0565b91506128d18261286a565b604082019050919050565b600060208201905081810360008301526128f5816128b9565b9050919050565b60008190508160005260206000209050919050565b60006020601f8301049050919050565b600082821b905092915050565b60006008830261295e7fffffffffffffffffffffffffffffffffffffffffffffffffffffffffffffffff82612921565b6129688683612921565b95508019841693508086168417925050509392505050565b6000819050919050565b60006129a56129a061299b84611d67565b612980565b611d67565b9050919050565b6000819050919050565b6129bf8361298a565b6129d36129cb826129ac565b84845461292e565b825550505050565b600090565b6129e86129db565b6129f38184846129b6565b505050565b5b81811015612a1757612a0c6000826129e0565b6001810190506129f9565b5050565b601f821115612a5c57612a2d816128fc565b612a3684612911565b81016020851015612a45578190505b612a59612a5185612911565b8301826129f8565b50505b505050565b600082821c905092915050565b6000612a7f60001984600802612a61565b1980831691505092915050565b6000612a988383612a6e565b9150826002028217905092915050565b612ab182611cb5565b67ffffffffffffffff811115612aca57612ac9612092565b5b612ad482546123ec565b612adf828285612a1b565b600060209050601f831160018114612b125760008415612b00578287015190505b612b0a8582612a8c565b865550612b72565b601f198416612b20866128fc565b60005b82811015612b4857848901518255600182019150602085019450602081019050612b23565b86831015612b655784890151612b61601f891682612a6e565b8355505b6001600288020188555050505b505050505050565b6000604082019050612b8f6000830185611dfc565b612b9c6020830184611e92565b939250505056fe68747470733a2f2f776562336275636b65742d313331323933303339372e636f732e61702d6775616e677a686f752e6d7971636c6f75642e636f6d2f6d657461646174612d626c6f636b636861696e2fa26469706673582212205240b397a40bdc25cbbaff0110c04939d16e8d3344b0a61d373fdc2810a4da8a64736f6c634300081a0033",
  "linkReferences": {},
  "deployedLinkReferences": {}
}