{
  "_format": "hh-sol-artifact-1",
  "contractName": "Market",
  "sourceName": "contracts/NFTMarket.sol",
  "abi": [
    {
      "inputs": [
        {
          "internalType": "address",
          "name": "nftAddress",
          "type": "address"
        }
      ],
      "stateMutability": "nonpayable",
      "type": "constructor"
    },
    {
      "inputs": [],
      "name": "FailedCall",
      "type": "error"
    },
    {
      "inputs": [
        {
          "internalType": "uint256",
          "name": "balance",
          "type": "uint256"
        },
        {
          "internalType": "uint256",
          "name": "needed",
          "type": "uint256"
        }
      ],
      "name": "InsufficientBalance",
      "type": "error"
    },
    {
      "anonymous": false,
      "inputs": [
        {
          "indexed": true,
          "internalType": "uint256",
          "name": "tokenId",
          "type": "uint256"
        },
        {
          "indexed": true,
          "internalType": "address",
          "name": "buyer",
          "type": "address"
        },
        {
          "indexed": false,
          "internalType": "uint256",
          "name": "price",
          "type": "uint256"
        }
      ],
      "name": "NFTBought",
      "type": "event"
    },
    {
      "anonymous": false,
      "inputs": [
        {
          "indexed": true,
          "internalType": "uint256",
          "name": "tokenId",
          "type": "uint256"
        }
      ],
      "name": "NFTDelisted",
      "type": "event"
    },
    {
      "anonymous": false,
      "inputs": [
        {
          "indexed": true,
          "internalType": "uint256",
          "name": "tokenId",
          "type": "uint256"
        },
        {
          "indexed": false,
          "internalType": "uint256",
          "name": "price",
          "type": "uint256"
        }
      ],
      "name": "NFTListed",
      "type": "event"
    },
    {
      "inputs": [
        {
          "internalType": "uint256",
          "name": "tokenId",
          "type": "uint256"
        }
      ],
      "name": "buyNFT",
      "outputs": [],
      "stateMutability": "payable",
      "type": "function"
    },
    {
      "inputs": [
        {
          "internalType": "uint256",
          "name": "tokenId",
          "type": "uint256"
        }
      ],
      "name": "delistNFT",
      "outputs": [],
      "stateMutability": "nonpayable",
      "type": "function"
    },
    {
      "inputs": [],
      "name": "getNftsForSale",
      "outputs": [
        {
          "internalType": "uint256[]",
          "name": "",
          "type": "uint256[]"
        }
      ],
      "stateMutability": "view",
      "type": "function"
    },
    {
      "inputs": [
        {
          "internalType": "uint256",
          "name": "tokenId",
          "type": "uint256"
        }
      ],
      "name": "getPrice",
      "outputs": [
        {
          "internalType": "uint256",
          "name": "",
          "type": "uint256"
        }
      ],
      "stateMutability": "view",
      "type": "function"
    },
    {
      "inputs": [
        {
          "internalType": "uint256",
          "name": "tokenId",
          "type": "uint256"
        }
      ],
      "name": "isForSale",
      "outputs": [
        {
          "internalType": "bool",
          "name": "",
          "type": "bool"
        }
      ],
      "stateMutability": "view",
      "type": "function"
    },
    {
      "inputs": [
        {
          "internalType": "uint256",
          "name": "tokenId",
          "type": "uint256"
        },
        {
          "internalType": "uint256",
          "name": "price",
          "type": "uint256"
        }
      ],
      "name": "listNFTForSale",
      "outputs": [],
      "stateMutability": "nonpayable",
      "type": "function"
    },
    {
      "inputs": [],
      "name": "nftContract",
      "outputs": [
        {
          "internalType": "contract MyNFT",
          "name": "",
          "type": "address"
        }
      ],
      "stateMutability": "view",
      "type": "function"
    }
  ],
  "bytecode": "0x608060405234801561001057600080fd5b506040516113f43803806113f4833981810160405281019061003291906100db565b806000806101000a81548173ffffffffffffffffffffffffffffffffffffffff021916908373ffffffffffffffffffffffffffffffffffffffff16021790555050610108565b600080fd5b600073ffffffffffffffffffffffffffffffffffffffff82169050919050565b60006100a88261007d565b9050919050565b6100b88161009d565b81146100c357600080fd5b50565b6000815190506100d5816100af565b92915050565b6000602082840312156100f1576100f0610078565b5b60006100ff848285016100c6565b91505092915050565b6112dd806101176000396000f3fe6080604052600436106100705760003560e01c8063cb917b9c1161004e578063cb917b9c146100f7578063d56d229d14610120578063d7ed242f1461014b578063e75722301461017657610070565b806351ed8288146100755780638546d00214610091578063b2733b39146100ce575b600080fd5b61008f600480360381019061008a9190610bb0565b6101b3565b005b34801561009d57600080fd5b506100b860048036038101906100b39190610bb0565b610463565b6040516100c59190610bf8565b60405180910390f35b3480156100da57600080fd5b506100f560048036038101906100f09190610c13565b61048d565b005b34801561010357600080fd5b5061011e60048036038101906101199190610bb0565b610626565b005b34801561012c57600080fd5b506101356107a9565b6040516101429190610cd2565b60405180910390f35b34801561015757600080fd5b506101606107cd565b60405161016d9190610dab565b60405180910390f35b34801561018257600080fd5b5061019d60048036038101906101989190610bb0565b610a69565b6040516101aa9190610ddc565b60405180910390f35b6002600082815260200190815260200160002060009054906101000a900460ff16610213576040517f08c379a000000000000000000000000000000000000000000000000000000000815260040161020a90610e54565b60405180910390fd5b60006001600083815260200190815260200160002054905080341461026d576040517f08c379a000000000000000000000000000000000000000000000000000000000815260040161026490610ec0565b60405180910390fd5b60008060009054906101000a900473ffffffffffffffffffffffffffffffffffffffff1673ffffffffffffffffffffffffffffffffffffffff16636352211e846040518263ffffffff1660e01b81526004016102c99190610ddc565b602060405180830381865afa1580156102e6573d6000803e3d6000fd5b505050506040513d601f19601f8201168201806040525081019061030a9190610f1e565b9050600081905061033a838273ffffffffffffffffffffffffffffffffffffffff16610a8690919063ffffffff16565b60008054906101000a900473ffffffffffffffffffffffffffffffffffffffff1673ffffffffffffffffffffffffffffffffffffffff166342842e0e8333876040518463ffffffff1660e01b815260040161039793929190610f5a565b600060405180830381600087803b1580156103b157600080fd5b505af11580156103c5573d6000803e3d6000fd5b5050505060006002600086815260200190815260200160002060006101000a81548160ff021916908315150217905550600060016000868152602001908152602001600020819055503373ffffffffffffffffffffffffffffffffffffffff16847f26701af1547d690b8c46ed5f0fbb8d5b115492b3b898f3dfc2e87b26cfcc1b14856040516104559190610ddc565b60405180910390a350505050565b60006002600083815260200190815260200160002060009054906101000a900460ff169050919050565b60008060009054906101000a900473ffffffffffffffffffffffffffffffffffffffff1673ffffffffffffffffffffffffffffffffffffffff16636352211e846040518263ffffffff1660e01b81526004016104e99190610ddc565b602060405180830381865afa158015610506573d6000803e3d6000fd5b505050506040513d601f19601f8201168201806040525081019061052a9190610f1e565b90503373ffffffffffffffffffffffffffffffffffffffff168173ffffffffffffffffffffffffffffffffffffffff161461059a576040517f08c379a000000000000000000000000000000000000000000000000000000000815260040161059190611003565b60405180910390fd5b600082116105dd576040517f08c379a00000000000000000000000000000000000000000000000000000000081526004016105d49061106f565b60405180910390fd5b81600160008581526020019081526020016000208190555060016002600085815260200190815260200160002060006101000a81548160ff021916908315150217905550505050565b60008060009054906101000a900473ffffffffffffffffffffffffffffffffffffffff1673ffffffffffffffffffffffffffffffffffffffff16636352211e836040518263ffffffff1660e01b81526004016106829190610ddc565b602060405180830381865afa15801561069f573d6000803e3d6000fd5b505050506040513d601f19601f820116820180604052508101906106c39190610f1e565b90503373ffffffffffffffffffffffffffffffffffffffff168173ffffffffffffffffffffffffffffffffffffffff1614610733576040517f08c379a000000000000000000000000000000000000000000000000000000000815260040161072a90611101565b60405180910390fd5b60006002600084815260200190815260200160002060006101000a81548160ff02191690831515021790555060006001600084815260200190815260200160002081905550817fc0c55a6edead4433d18cb1e287a0a20a2fa003a6f483bc9823d2e504d70d1c6760405160405180910390a25050565b60008054906101000a900473ffffffffffffffffffffffffffffffffffffffff1681565b606060008060009054906101000a900473ffffffffffffffffffffffffffffffffffffffff1673ffffffffffffffffffffffffffffffffffffffff166318160ddd6040518163ffffffff1660e01b8152600401602060405180830381865afa15801561083d573d6000803e3d6000fd5b505050506040513d601f19601f820116820180604052508101906108619190611136565b905060008167ffffffffffffffff81111561087f5761087e611163565b5b6040519080825280602002602001820160405280156108ad5781602001602082028036833780820191505090505b5090506000805b838110156109be5760008060009054906101000a900473ffffffffffffffffffffffffffffffffffffffff1673ffffffffffffffffffffffffffffffffffffffff16634f6ccce7836040518263ffffffff1660e01b81526004016109189190610ddc565b602060405180830381865afa158015610935573d6000803e3d6000fd5b505050506040513d601f19601f820116820180604052508101906109599190611136565b90506002600082815260200190815260200160002060009054906101000a900460ff16156109b0578084848151811061099557610994611192565b5b60200260200101818152505082806109ac906111f0565b9350505b5080806001019150506108b4565b5060008167ffffffffffffffff8111156109db576109da611163565b5b604051908082528060200260200182016040528015610a095781602001602082028036833780820191505090505b50905060005b82811015610a5e57838181518110610a2a57610a29611192565b5b6020026020010151828281518110610a4557610a44611192565b5b6020026020010181815250508080600101915050610a0f565b508094505050505090565b600060016000838152602001908152602001600020549050919050565b80471015610acd5747816040517fcf479181000000000000000000000000000000000000000000000000000000008152600401610ac4929190611238565b60405180910390fd5b60008273ffffffffffffffffffffffffffffffffffffffff1682604051610af390611292565b60006040518083038185875af1925050503d8060008114610b30576040519150601f19603f3d011682016040523d82523d6000602084013e610b35565b606091505b5050905080610b70576040517fd6bda27500000000000000000000000000000000000000000000000000000000815260040160405180910390fd5b505050565b600080fd5b6000819050919050565b610b8d81610b7a565b8114610b9857600080fd5b50565b600081359050610baa81610b84565b92915050565b600060208284031215610bc657610bc5610b75565b5b6000610bd484828501610b9b565b91505092915050565b60008115159050919050565b610bf281610bdd565b82525050565b6000602082019050610c0d6000830184610be9565b92915050565b60008060408385031215610c2a57610c29610b75565b5b6000610c3885828601610b9b565b9250506020610c4985828601610b9b565b9150509250929050565b600073ffffffffffffffffffffffffffffffffffffffff82169050919050565b6000819050919050565b6000610c98610c93610c8e84610c53565b610c73565b610c53565b9050919050565b6000610caa82610c7d565b9050919050565b6000610cbc82610c9f565b9050919050565b610ccc81610cb1565b82525050565b6000602082019050610ce76000830184610cc3565b92915050565b600081519050919050565b600082825260208201905092915050565b6000819050602082019050919050565b610d2281610b7a565b82525050565b6000610d348383610d19565b60208301905092915050565b6000602082019050919050565b6000610d5882610ced565b610d628185610cf8565b9350610d6d83610d09565b8060005b83811015610d9e578151610d858882610d28565b9750610d9083610d40565b925050600181019050610d71565b5085935050505092915050565b60006020820190508181036000830152610dc58184610d4d565b905092915050565b610dd681610b7a565b82525050565b6000602082019050610df16000830184610dcd565b92915050565b600082825260208201905092915050565b7f54686973204e4654206973206e6f7420666f722073616c652e00000000000000600082015250565b6000610e3e601983610df7565b9150610e4982610e08565b602082019050919050565b60006020820190508181036000830152610e6d81610e31565b9050919050565b7f496e636f72726563742070726963652073656e742e0000000000000000000000600082015250565b6000610eaa601583610df7565b9150610eb582610e74565b602082019050919050565b60006020820190508181036000830152610ed981610e9d565b9050919050565b6000610eeb82610c53565b9050919050565b610efb81610ee0565b8114610f0657600080fd5b50565b600081519050610f1881610ef2565b92915050565b600060208284031215610f3457610f33610b75565b5b6000610f4284828501610f09565b91505092915050565b610f5481610ee0565b82525050565b6000606082019050610f6f6000830186610f4b565b610f7c6020830185610f4b565b610f896040830184610dcd565b949350505050565b7f4f6e6c7920746865206f776e65722063616e206c69737420746865204e46542060008201527f666f722073616c652e0000000000000000000000000000000000000000000000602082015250565b6000610fed602983610df7565b9150610ff882610f91565b604082019050919050565b6000602082019050818103600083015261101c81610fe0565b9050919050565b7f5072696365206d7573742062652067726561746572207468616e20302e000000600082015250565b6000611059601d83610df7565b915061106482611023565b602082019050919050565b600060208201905081810360008301526110888161104c565b9050919050565b7f4f6e6c7920746865206f776e65722063616e2072656d6f766520746865204e4660008201527f542066726f6d2073616c652e0000000000000000000000000000000000000000602082015250565b60006110eb602c83610df7565b91506110f68261108f565b604082019050919050565b6000602082019050818103600083015261111a816110de565b9050919050565b60008151905061113081610b84565b92915050565b60006020828403121561114c5761114b610b75565b5b600061115a84828501611121565b91505092915050565b7f4e487b7100000000000000000000000000000000000000000000000000000000600052604160045260246000fd5b7f4e487b7100000000000000000000000000000000000000000000000000000000600052603260045260246000fd5b7f4e487b7100000000000000000000000000000000000000000000000000000000600052601160045260246000fd5b60006111fb82610b7a565b91507fffffffffffffffffffffffffffffffffffffffffffffffffffffffffffffffff820361122d5761122c6111c1565b5b600182019050919050565b600060408201905061124d6000830185610dcd565b61125a6020830184610dcd565b9392505050565b600081905092915050565b50565b600061127c600083611261565b91506112878261126c565b600082019050919050565b600061129d8261126f565b915081905091905056fea2646970667358221220e21f767f32776026cd082765217309a4304b720d6991aa6306e07ac4ce7fa1e064736f6c634300081a0033",
  "linkReferences": {},
  "deployedLinkReferences": {}
}